:100000000C945D000C9485000C9485000C94850084
:100010000C9485000C9485000C9485000C9485004C
:100020000C9485000C9485000C9485000C9471044C
:100030000C9485000C9485000C9485000C9485002C
:100040000C9427040C9485000C94F5030C94CF03B6
:100050000C9485000C9485000C9485000C9485000C
:100060000C9485000C94850000000008000201003B
:100070000003040700000000000000000000000072
:10008000250028002B0000000000240027002A0083
:10009000040404040404040402020202020203032E
:1000A0000303030301020408102040800102040836
:1000B0001020010204081020480511241FBECFEFB4
:1000C000D8E0DEBFCDBF11E0A0E0B1E0E2EDF4E1A9
:1000D00002C005900D92A231B107D9F722E0A2E14A
:1000E000B1E001C01D92AB30B207E1F710E0CDE501
:1000F000D0E004C02197FE010E94610ACC35D107EF
:10010000C9F70E9498050C94670A0C94000090E0CF
:10011000FC01EC55FF4F249180579F4FFC018491C7
:10012000882399F090E0880F991FFC01EA57FF4F50
:10013000A591B491FC01E458FF4F859194918FB73C
:10014000F894EC91E22BEC938FBF0895AF92BF929D
:10015000CF92DF92EF92FF920F931F93CF93DF9393
:100160006C017B018B01040F151FEB015E01AE18C2
:10017000BF08C017D10759F06991D601ED91FC91E4
:100180000190F081E02DC6010995892B79F7C50111
:10019000DF91CF911F910F91FF90EF90DF90CF9063
:1001A000BF90AF900895FC01538D448D252F30E012
:1001B000842F90E0821B930B541710F0CF96089574
:1001C00001970895FC01918D828D981761F0A28DA1
:1001D000AE0FBF2FB11D5D968C91928D9F5F9F7367
:1001E000928F90E008958FEF9FEF0895FC01918D1D
:1001F000828D981731F0828DE80FF11D858D90E08A
:1002000008958FEF9FEF0895FC01918D228D892F26
:1002100090E0805C9F4F821B91098F73992708950E
:1002200083E591E00E94040121E0892B09F420E09C
:10023000822F089580E090E0892B29F00E94100120
:1002400081110C9400000895FC01A48DA80FB92F12
:10025000B11DA35ABF4F2C91848D90E001968F73EE
:100260009927848FA689B7892C93A089B1898C910D
:10027000837080648C93938D848D981306C002885C
:10028000F389E02D80818F7D80830895EF92FF9226
:100290000F931F93CF93DF93EC0181E0888F9B8DA9
:1002A0008C8D98131AC0E889F989808185FF15C063
:1002B0009FB7F894EE89FF896083E889F989808186
:1002C0008370806480839FBF81E090E0DF91CF9155
:1002D0001F910F91FF90EF900895F62E0B8D10E077
:1002E0000F5F1F4F0F731127E02E8C8D8E110CC0E6
:1002F0000FB607FCFACFE889F989808185FFF5CF31
:10030000CE010E942401F1CFEB8DEC0FFD2FF11DEA
:10031000E35AFF4FF0829FB7F8940B8FEA89FB896D
:1003200080818062CFCFCF93DF93EC01888D8823CB
:10033000B9F0AA89BB89E889F9898C9185FD03C048
:10034000808186FD0DC00FB607FCF7CF8C9185FF2D
:10035000F2CF808185FFEDCFCE010E942401E9CF4D
:10036000DF91CF91089590E0FC01E859FF4F24916F
:10037000FC01EC55FF4F3491FC01E057FF4FE49135
:10038000EE23C9F0222339F0233001F1A8F4213003
:1003900019F1223029F1F0E0EE0FFF1FE458FF4F72
:1003A000A591B4918FB7F894EC91611126C0309566
:1003B0003E233C938FBF08952730A9F02830C9F021
:1003C000243049F7809180008F7D03C080918000A8
:1003D0008F7780938000DFCF84B58F7784BDDBCFAC
:1003E00084B58F7DFBCF8091B0008F778093B00074
:1003F000D2CF8091B0008F7DF9CF3E2BDACF3FB7BF
:10040000F89480913D0190913E01A0913F01B091FF
:10041000400126B5A89B05C02F3F19F00196A11DEC
:10042000B11D3FBFBA2FA92F982F8827BC01CD013E
:10043000620F711D811D911D42E0660F771F881F9D
:10044000991F4A95D1F708958F929F92AF92BF92CC
:10045000CF92DF92EF92FF924B015C010E94FF016D
:100460006B017C010E94FF016C197D098E099F09B7
:10047000683E734081059105A8F321E0821A910836
:10048000A108B10888EEC80E83E0D81EE11CF11C5B
:1004900081149104A104B10429F7FF90EF90DF903B
:1004A000CF90BF90AF909F908F900895CF92DF92A2
:1004B000EF92FF92CF93DF93EC01603282E07807F6
:1004C000CCF5653B710514F064EB70E0898128E898
:1004D00030E0281B310987FD3395220F331F220F8F
:1004E000331F6901330FEE08FF088A8128E532E0E7
:1004F000281B310987FD3395220F331F220F331F2D
:10050000032E000C440B550B2C193D094E095F09B5
:10051000DB0177FF02C0B0E0A0E00E941C0A24EBE0
:1005200030E040E050E00E94F209C20ED31EE41E0B
:10053000F51EB601E881EC3070F5298188E890E07D
:10054000821B910927FD9395880F991F880F991F8A
:10055000681779077CF02A8188E592E0821B91096F
:1005600027FD9395880F991F880F991F68177907A2
:100570000CF4CB010297880F991F4FB7F8942E2FD8
:1005800030E0F901EE0FFF1FE20FF31FEC5EFE4FAC
:10059000928381834FBFDF91CF91FF90EF90DF90E7
:1005A000CF9008951F93CF93DF93EC01162F88818E
:1005B0008C3008F04DC0862F0E9487008881282F3C
:1005C00030E0F901EE0FFF1FE20FF31FEC5EFE4F6C
:1005D0001F736081607C612B608319821A822CE01A
:1005E000622F0E94550A829FB001112430E020E062
:1005F000AB01420F531FFA01EE0FFF1FE40FF51F6F
:10060000EC5EFE4F908196FD16C02F5F3F4F2C3061
:10061000310571F781110FC01092800082E0809344
:1006200081001092850010928400B19A80916F0031
:10063000826080936F00E8818E2F90E0FC01EE0FC6
:10064000FF1FE80FF91FEC5EFE4F808180648083FE
:100650008881DF91CF911F910895CF93DF931092FE
:100660004C0110924B01C0914B01D0914C01C33011
:10067000D105D4F461E08DE00E94B3016CE271E039
:1006800080E090E00E94240260E08DE00E94B301CF
:100690006CE271E080E090E00E9424022196D09309
:1006A0004C01C0934B01DFCFDF91CF91089564E6F9
:1006B00070E080E090E00C94240266E970E085E050
:1006C00092E00E9456020E94570364E670E088E0C0
:1006D00092E00E94560262E370E086EF91E00E9491
:1006E00056020E9457036AEA70E085E092E00E9499
:1006F000560266E970E089EF91E00E9456020E947E
:1007000057036CE370E08CEF91E00E9456026DE2BB
:1007100070E088E092E00E9456020E9457036AEA65
:1007200070E089EF91E00E94560268E270E08FEF7E
:1007300091E00E9456020E94570366E470E082E056
:1007400092E00E94560268E770E08CEF91E00E9410
:1007500056020E94570364E170E08FEF91E00E941F
:10076000560268E270E083EF91E00E9456020E9418
:1007700057036EE670E086EF91E00E9456026EE647
:1007800070E082E092E00E9456020E94570364E10A
:1007900070E083EF91E00E9456020C9457031F9281
:1007A0000F920FB60F9211242F933F934F935F93A5
:1007B0006F937F938F939F93AF93BF93EF93FF9329
:1007C00083E591E00E942401FF91EF91BF91AF91E9
:1007D0009F918F917F916F915F914F913F912F9159
:1007E0000F900FBE0F901F9018951F920F920FB68B
:1007F0000F9211242F938F939F93EF93FF93E09188
:100800006301F09164018081E0916901F0916A01D6
:1008100082FD1BC0908180916C018F5F8F7320914E
:100820006D01821741F0E0916C01F0E0ED5AFE4F4E
:10083000958F80936C01FF91EF919F918F912F91F4
:100840000F900FBE0F901F9018958081F4CF1F92CC
:100850000F920FB60F9211242F933F938F939F9374
:10086000AF93BF938091390190913A01A0913B01E0
:10087000B0913C013091380123E0230F2D3758F51A
:100880000196A11DB11D20933801809339019093E9
:100890003A01A0933B01B0933C0180913D019091BE
:1008A0003E01A0913F01B09140010196A11DB11DF3
:1008B00080933D0190933E01A0933F01B09340018E
:1008C000BF91AF919F918F913F912F910F900FBE4C
:1008D0000F901F90189526E8230F0296A11DB11DB9
:1008E000D2CF1F920F920FB60F9211242F933F93E6
:1008F0004F935F936F937F938F939F93AF93BF9328
:10090000CF93DF93EF93FF9380911201C091130176
:10091000D0E087FF24C0109285001092840080915F
:1009200012018F5F8093120180911201082E000C3A
:10093000990B8C179D0724F4809112018C30C4F11F
:100940008091840090918500049680349C4908F43D
:100950007AC08091840090918500049676C0809141
:100960001201082E000C990B8C179D07C4F6E0911C
:1009700012018E2FEE0F990BFC01EE0FFF1FE80FF7
:10098000F91FEC5EFE4F808186FFC9CFE091120116
:100990008E2FEE0F990BFC01EE0FFF1FE80FF91FD2
:1009A000EC5EFE4F808160E08F730E94B301B7CF91
:1009B0002091840030918500E09112018E2FEE0F7E
:1009C000990BFC01EE0FFF1FE80FF91FEC5EFE4FC5
:1009D00081819281820F931F909389008093880078
:1009E000E09112018E2FEE0F990BFC01EE0FFF1F0D
:1009F000E80FF91FEC5EFE4F808186FF11C0E09189
:100A000012018E2FEE0F990BFC01EE0FFF1FE80F66
:100A1000F91FEC5EFE4F808161E08F730E94B3018D
:100A2000FF91EF91DF91CF91BF91AF919F918F9106
:100A30007F916F915F914F913F912F910F900FBEDA
:100A40000F901F90189580E49CE990938900809303
:100A500088008FEF80931201E3CFFC019091130186
:100A60009C3098F481E0890F809313019083892F43
:100A700090E0FC01EE0FFF1FE80FF91FEC5EFE4F48
:100A800088EB9BE09283818308958FEF80830895A4
:100A9000E3E5F1E01382128288EE93E0A0E0B0E09B
:100AA00084839583A683B78384E091E091838083D8
:100AB00085EC90E09587848784EC90E09787868723
:100AC00080EC90E0918B808B81EC90E0938B828B1B
:100AD00082EC90E0958B848B86EC90E0978B868BF4
:100AE000118E128E138E148E88E092E00E942D05D6
:100AF00085E092E00E942D0582E092E00E942D05A3
:100B00008FEF91E00E942D058CEF91E00E942D0562
:100B100089EF91E00E942D0586EF91E00E942D055E
:100B200083EF91E00E942D0580EF91E00C942D055C
:100B3000789484B5826084BD84B5816084BD85B5B8
:100B4000826085BD85B5816085BD80916E008160C4
:100B500080936E001092810080918100826080936A
:100B6000810080918100816080938100809180006C
:100B70008160809380008091B10084608093B10097
:100B80008091B00081608093B00080917A00846091
:100B900080937A0080917A00826080937A008091BD
:100BA0007A00816080937A0080917A0080688093D7
:100BB0007A001092C1008DE00E94870065E070E02D
:100BC00088E092E00E94D2026AE570E088E092E05C
:100BD0000E94560266E070E085E092E00E94D20238
:100BE0006AE570E085E092E00E94560267E070E0FE
:100BF00082E092E00E94D2026AE570E082E092E038
:100C00000E94560268E070E08FEF91E00E94D202ED
:100C10006AE570E08FEF91E00E94560269E070E0B3
:100C20008CEF91E00E94D2026AE570E08CEF91E0D7
:100C30000E9456026AE070E089EF91E00E94D202C1
:100C40006AE570E089EF91E00E9456026BE070E087
:100C500086EF91E00E94D2026AE570E086EF91E0B3
:100C60000E9456026CE070E083EF91E00E94D20295
:100C70006AE570E083EF91E00E94560264E070E064
:100C800080EF91E00E94D2026AE570E080EF91E08F
:100C90000E945602E0916301F091640182E080833A
:100CA000E0915F01F09160011082E0916101F091AB
:100CB00062018FEC808310926B01E0916701F091EB
:100CC000680186E08083E0916501F0916601808192
:100CD00080618083E0916501F09166018081886088
:100CE0008083E0916501F091660180818068808356
:100CF000E0916501F091660180818F7D808380E4C1
:100D0000782E0EEB10E090E0E92E90E0F92E2CE327
:100D1000C22ED12C34E1A32EB12C70927C00809194
:100D20007A00806480937A0080917A0086FDFCCFFF
:100D300080917800909179009093520180935101B5
:100D40008B5F9109893F910508F0A9C20E942D038C
:100D5000C0914F01D0915001C530D10544F40E949B
:100D60005D032196D0935001C0934F01F1CF0E94B3
:100D70002D0380904D0190904E0185E088169104DE
:100D80000CF07AC066E970E085E092E00E945602BD
:100D90000E9457036EE170E088E092E00E945602E4
:100DA00064E670E086EF91E00E9456020E945703CD
:100DB0006AEA70E085E092E00E94560266E970E01F
:100DC00089EF91E00E9456020E9457036AE570E0A5
:100DD0008CEF91E00E94560268E770E088E092E0B4
:100DE0000E9456020E9457036AEA70E089EF91E080
:100DF0000E94560268E270E08FEF91E00E94560276
:100E00000E9457036AE570E082E092E00E94560279
:100E10006CE370E08CEF91E00E9456020E94570351
:100E200064E170E08FEF91E00E94560268E270E0AA
:100E300083EF91E00E9456020E9457036EE170E03A
:100E400086EF91E00E94560260E570E082E092E059
:100E50000E9456020E94570364E170E083EF91E024
:100E60000E9456020E9457038FEF881A980A9092A8
:100E70004E0180924D017DCF259709F004C285E097
:100E80008816910409F0FFC166E470E088E092E002
:100E90000E9456026AEA70E085E092E00E945602E3
:100EA00064E170E080E090E00E94240260E570E080
:100EB00082E092E00E94560264E170E08FEF91E0E0
:100EC0000E94560264E170E080E090E00E942402FB
:100ED00060E570E08CEF91E00E9456026AEA70E0F3
:100EE00089EF91E00E94560264E170E080E090E0BA
:100EF0000E94240266E470E086EF91E00E945602B0
:100F000064E170E083EF91E00E94560264E170E0DA
:100F100080E090E00E94240268EE73E080E090E0C0
:100F20000E94240266E470E088E092E00E9456028B
:100F300062E870E089EF91E00E94560268EC70E090
:100F400080E090E00E94240268E270E08FEF91E080
:100F50000E9456026EE670E082E092E00E94560225
:100F600064E170E08FEF91E00E94560264E170E06E
:100F700080E090E00E9424026CE370E085E092E063
:100F80000E94560264E170E080E090E00E9424023A
:100F900068E770E08CEF91E00E94560264E170E037
:100FA00080E090E00E94240266E470E086EF91E029
:100FB0000E94560264E170E083EF91E00E945602C5
:100FC00064E170E080E090E00E94240268EE73E04B
:100FD00080E090E00E94240210924C0110924B019C
:100FE000C0914B01D0914C01C330D1050CF04AC0E7
:100FF000D0924A01C09249018090490190904A01E3
:1010000084E1881691049CF4B40185E092E00E948A
:1010100056026AE070E080E090E00E94240281E0E5
:10102000881A910890924A0180924901E5CFB092C6
:101030004A01A09249018090490190904A018CE3B5
:10104000881691049CF4B40185E092E00E94560257
:101050006AE070E080E090E00E9424028FEF881A3E
:10106000980A90924A0180924901E5CF68EC70E0BD
:1010700080E090E00E9424022196D0934C01C0931E
:101080004B01AECF68EB7BE080E090E00E94240251
:1010900066E470E088E092E00E94560260E570E04D
:1010A00082E092E00E9456028AEA90E09093480122
:1010B00080934701C0914701D0914801CB35D105BC
:1010C000C4F0BE0185E092E00E945602B8016C1B9C
:1010D0007D0B8FEF91E00E9456026FE070E080E0A0
:1010E00090E00E9424022197D0934801C0934701C9
:1010F000E1CF68EE73E080E090E00E94240260E5BA
:1011000070E08CEF91E00E94560266E470E086EF9A
:1011100091E00E9456028AEA90E090934801809301
:101120004701C0914701D0914801CB35D105C4F0AA
:10113000BE0189EF91E00E945602B8016C1B7D0B45
:1011400083EF91E00E9456026FE070E080E090E053
:101150000E9424022197D0934801C0934701E1CF18
:1011600068EB7BE080E090E00E942402CAE5D0E0DA
:10117000D0934601C0934501D0934401C0934301ED
:1011800066E470E088E092E00E94560260E570E05C
:1011900082E092E00E94560268E770E08CEF91E0F6
:1011A0000E94560266E470E086EF91E00E945602CB
:1011B000D0934201C0934101C0914101D0914201BD
:1011C000CA3AD105DCF4BE0185E092E00E945602E5
:1011D000609145017091460161507109709346011B
:1011E000609345018FEF91E00E94560264E170E048
:1011F00080E090E00E9424022196DACF8AE590E018
:101200009093420180934101C0914101D0914201EC
:10121000C43BD105FCF4BE0189EF91E00E94560267
:1012200060914301709144016150710970934401D0
:101230006093430183EF91E00E9456026FE070E0FB
:1012400080E090E00E9424022196D0934201C09356
:101250004101DACFC0914F01D0915001CA30D10580
:1012600044F40E945D032196D0935001C0934F0136
:10127000F1CF1092500110924F0110924E01109236
:101280004D010E942D03E114F10409F446CD0E94A2
:101290001001882309F441CD0E9400003ECD6CE886
:1012A00070E089EF91E00E9456026CE870E085E002
:1012B00092E00E9456020E9457036DE270E088E0BF
:1012C00092E00E9456026AE570E086EF91E00E948B
:1012D00056020E9457036AEA70E085E092E00E949D
:1012E00056026AEA70E089EF91E00E9456026CE8CB
:1012F00070E085E092E00E9456026CE870E089EFB1
:1013000091E00E9456020E94570368E770E08CEF5C
:1013100091E00E9456026EE670E088E092E00E9442
:1013200056020E9457036AEA70E089EF91E00E943A
:1013300056026AEA70E089EF91E00E94560262E389
:1013400070E083EF91E00E94560262E370E08FEF5D
:1013500091E00E9456020E9457036EE670E082E020
:1013600092E00E9456026CE370E08CEF91E00E94E4
:1013700056020E94570364E170E08FEF91E00E94F3
:10138000560264E170E083EF91E00E94560262E34E
:1013900070E08FEF91E00E94560262E370E083EF0D
:1013A00091E00E9456020E9457036EE170E086EFC2
:1013B00091E00E94560262E370E082E092E00E94B7
:1013C00056020E94570364E170E083EF91E00E94AF
:1013D000560264E170E08FEF91E00E9456020E9495
:1013E000570351CF052E97FB1EF400940E94090A63
:1013F00057FD07D00E94240A07FC03D04EF40C943A
:10140000090A50954095309521953F4F4F4F5F4FBA
:10141000089590958095709561957F4F8F4F9F4F60
:1014200008950E94460AA59F900DB49F900DA49F19
:10143000800D911D11240895B7FF0C94110A0E948C
:10144000110A821B930B0895A1E21A2EAA1BBB1B43
:10145000FD010DC0AA1FBB1FEE1FFF1FA217B30780
:10146000E407F50720F0A21BB30BE40BF50B661F96
:10147000771F881F991F1A9469F76095709580955A
:1014800090959B01AC01BD01CF010895A29FB001D1
:10149000B39FC001A39F700D811D1124911DB29FA8
:1014A000700D811D1124911D0895991B79E004C0D0
:1014B000991F961708F0961B881F7A95C9F7809593
:1014C0000895EE0FFF1F0590F491E02D0994F89414
:0214D000FFCF4C
:1014D200000000004601A600D30093010401E200CF
:0214E200F60012
:00000001FF
